{
  "contractName": "creds",
  "abi": [
    {
      "inputs": [],
      "stateMutability": "nonpayable",
      "type": "constructor"
    },
    {
      "inputs": [],
      "name": "getcred",
      "outputs": [
        {
          "internalType": "uint256",
          "name": "",
          "type": "uint256"
        }
      ],
      "stateMutability": "view",
      "type": "function"
    },
    {
      "inputs": [
        {
          "internalType": "uint256",
          "name": "food",
          "type": "uint256"
        },
        {
          "internalType": "uint256",
          "name": "stay",
          "type": "uint256"
        },
        {
          "internalType": "uint256",
          "name": "travel",
          "type": "uint256"
        },
        {
          "internalType": "uint256",
          "name": "miscellaneous",
          "type": "uint256"
        }
      ],
      "name": "spent",
      "outputs": [],
      "stateMutability": "nonpayable",
      "type": "function"
    },
    {
      "inputs": [],
      "name": "reset",
      "outputs": [],
      "stateMutability": "nonpayable",
      "type": "function"
    }
  ],
  "bytecode": "0x608060405234801561001057600080fd5b50620186a060008190555061032e8061002a6000396000f3fe608060405234801561001057600080fd5b50600436106100415760003560e01c806315417e2214610046578063d2c7afd614610064578063d826f88f14610080575b600080fd5b61004e61008a565b60405161005b9190610165565b60405180910390f35b61007e600480360381019061007991906101b1565b610093565b005b610088610140565b005b60008054905090565b6000818486856000546100a69190610247565b6100b09190610247565b6100ba9190610247565b6100c49190610247565b1015610105576040517f08c379a00000000000000000000000000000000000000000000000000000000081526004016100fc906102d8565b60405180910390fd5b808484846000546101169190610247565b6101209190610247565b61012a9190610247565b6101349190610247565b60008190555050505050565b620186a0600081905550565b6000819050919050565b61015f8161014c565b82525050565b600060208201905061017a6000830184610156565b92915050565b600080fd5b61018e8161014c565b811461019957600080fd5b50565b6000813590506101ab81610185565b92915050565b600080600080608085870312156101cb576101ca610180565b5b60006101d98782880161019c565b94505060206101ea8782880161019c565b93505060406101fb8782880161019c565b925050606061020c8782880161019c565b91505092959194509250565b7f4e487b7100000000000000000000000000000000000000000000000000000000600052601160045260246000fd5b60006102528261014c565b915061025d8361014c565b925082820390508181111561027557610274610218565b5b92915050565b600082825260208201905092915050565b7f6c696d6974206578636564656400000000000000000000000000000000000000600082015250565b60006102c2600d8361027b565b91506102cd8261028c565b602082019050919050565b600060208201905081810360008301526102f1816102b5565b905091905056fea264697066735822122084f6eea3eac3a3eb4d665193980dc23116a08bda6a73f270734e52547221998f64736f6c63430008110033",
  "immutableReferences": {},
  "source": "// SPDX-License-Identifier: MIT\r\npragma solidity ^0.8.17;\r\n//Aryan Solanki 2019110057\r\ncontract creds{\r\n    uint credlimit;\r\n\r\n    constructor(){\r\n        credlimit=100000;\r\n    }\r\n\r\n    function getcred() public view returns(uint){\r\n        return credlimit;\r\n    }\r\n\r\n    function spent( uint food, uint stay, uint travel, uint miscellaneous) public {\r\n        require (credlimit- travel -food -stay- miscellaneous >=0, \"limit exceded\");\r\n        credlimit=credlimit - travel-stay-food-miscellaneous;\r\n    }\r\n    function reset()public {\r\n        credlimit=100000;\r\n    }\r\n\r\n}",
  "sourcePath": "C:\\Users\\solanki\\OneDrive\\Desktop\\aryan\\bct truffle\\contracts\\trip.sol",
  "compiler": {
    "name": "solc",
    "version": "0.8.17+commit.8df45f5f.Emscripten.clang"
  },
  "schemaVersion": "3.4.10",
  "updatedAt": "2022-11-01T09:52:06.057Z",
  "devdoc": {
    "kind": "dev",
    "methods": {},
    "version": 1
  },
  "userdoc": {
    "kind": "user",
    "methods": {},
    "version": 1
  }
}